:100000000C94F2000C9411010C9411010C94110148
:100010000C9411010C9411010C9411010C94110118
:100020000C9411010C9411010C9451050C948B0546
:100030000C9411010C9411010C9411010C941101F8
:100040000C9411010C946C010C9411010C9411018D
:100050000C9411010C9411010C9411010C941101D8
:100060000C9411010C9411010C9411010C941101C8
:100070000C9411010C9411010C9411010C941101B8
:100080000C94A9010C9411010C9411010C94110110
:100090000C9411010C941101EA04E704E404E10456
:1000A000DE04DB04D804D504D204CF04CC04C90494
:1000B000C604C304C004BD04BA04B704B404B10444
:1000C000AE04AB04A804A504A2049F049C049904F4
:1000D0009604930490048D048A04870484048104A4
:1000E0007E047B047804750472046F046C04690454
:1000F0006604630460045D045A0457045404510404
:100100004E044B044804450442043F043C043904B3
:100110003604330430042D042A04000100004E018B
:10012000120002000060014300030000A30104016B
:10013000030904A7011402030904BD0116030309FE
:1001400004D5010C0001C112018036018136120173
:10015000000202000010C0167A040001010203012F
:1001600009024300020100C032090400000102023A
:1001700001000524001001052401010104240206E8
:100180000524060001070582031000400904010050
:10019000020A000000070503024000000705840270
:1001A00040000004030904140359006F0075007235
:1001B0000020004E0061006D006500000016035530
:1001C0000053004200200053006500720069006186
:1001D000006C0000000C03310032003300340035A5
:1001E0000000000011241FBECFEFD0E2DEBFCDBF64
:1001F00011E0A0E0B1E0EAEBFEE000E00BBF02C0DE
:1002000007900D92A431B107D9F711E0A4E1B1E054
:1002100001C01D92A831B107E1F70E9493020C942E
:100220005B070C94000083E08AB92FEF39E648E1C0
:10023000215030404040E1F700C000008FEF80BB0C
:1002400099E091BB2FEF39E648E121503040404022
:10025000E1F700C00000259A2FEF39E648E1215070
:1002600030404040E1F700C000003E9A81B984E68A
:1002700082B980E18DB9089540E4409380003BE06D
:100280003093810022E020936F0080E09DE79093FF
:1002900089008093880040939000309391002093D0
:1002A000710081E09DE7909399008093980083E22C
:1002B0008093B0009CE09093B1009FEF9093B300C7
:1002C0009AEF9093B40084BD81E085BD80EA87BD3C
:1002D0008CE388BD789408951F920F920FB60F9209
:1002E0000BB60F9211242F933F934F935F936F930D
:1002F0007F938F939F93AF93BF93EF93FF9320913F
:100300000201309103013695322F22273795279528
:1003100040E050E060E074E284EF90E00E94F80674
:10032000215030403093890020938800FF91EF9155
:10033000BF91AF919F918F917F916F915F914F91FD
:100340003F912F910F900BBE0F900FBE0F901F90FB
:1003500018951F920F920FB60F920BB60F921124A1
:100360002F933F934F935F936F937F938F939F93BD
:10037000AF93BF93EF93FF93209100013091010160
:100380003695322F22273795279540E050E060E0E0
:1003900074E284EF90E00E94F806215030403093E0
:1003A000990020939800FF91EF91BF91AF919F9199
:1003B0008F917F916F915F914F913F912F910F900E
:1003C0000BBE0F900FBE0F901F9018950F931F93A9
:1003D000DF93CF93CDB7DEB7A4970FB6F894DEBF07
:1003E0000FBECDBF8C0119821A821B821C821D8216
:1003F0001E821F82188619861A861B861C861D86F9
:100400001E861F86188AFC0180818D8381818E83E0
:1004100082818F83CE0105960E9435079093030158
:1004200080930201F8018381898384818A83858195
:100430008B831C82CE0101960E94350790930101A7
:1004400080930001F8018681898787818A8780856A
:100450008B871C86CE0109960E9435078093B400D5
:10046000F80181858D8782858E8783858F87188A9D
:10047000CE010D960E94350788BDF80184858B8BCF
:100480001C8ACE0143960E9435079A8B898BF8010E
:1004900085858F8B188ECE0147960E9435079E8BDF
:1004A0008D8BF80186858B8F1C8ECE014B960E941A
:1004B00035079A8F898FF80187858F8F18A2CE0113
:1004C0004F960E9435079E8F8D8FF80180898BA3F0
:1004D0001CA2CE0183960E9435079AA389A389891D
:1004E0008295807F8EB92D893E8943E0220F331F8C
:1004F0004A95E1F78D8D9E8D880F991F822B998DDE
:10050000892B81BBE9A1FAA1EC5FFE4F808182B902
:10051000A4960FB6F894DEBF0FBECDBFCF91DF918A
:100520001F910F910895FF920F931F93DF93CF9325
:10053000CDB7DEB762970FB6F894DEBF0FBECDBF62
:1005400080E880936100109261000E9413010E9474
:100550003C010E94CB0252E1F52E8E010F5F1F4F2E
:10056000F8018F2D11928A95E9F70E944D03882397
:10057000E1F3F894C80161E10E9414031A8AC801EA
:100580000E94E6010E9467037894EACF8091E80018
:1005900080FFFCCF089581E88093D70080EA8093A4
:1005A000D80086E189BD09B400FEFDCF80E98093C3
:1005B000D8001092E00010921401109215018CE006
:1005C0008093E20078948FEF99E6A8E18150904003
:1005D000A040E1F700C00000089580911401089543
:1005E0008FB7F89490911401992369F093E0909358
:1005F000E9002BE69091E80095FD09C092FF03C049
:100600002093E800F7CF8FBF2FEF3FEF0BC0209173
:10061000F1009091E80095FD03C09BE69093E800FF
:100620008FBF30E0C9010895EF92FF921F93DF93CF
:10063000CF930F92CDB7DEB77C0110E022C0698363
:100640000E94F0029C0169818FEF2F3F380789F0EB
:100650002D303105D1F02A303105B9F0A9014052D1
:1006600050404F35510568F4F70121937F011F5F1A
:1006700008C080911401882339F08091150180FF12
:1006800003C01617E0F201C01FEF812F0F90CF912A
:10069000DF911F91FF90EF9008952FB7F89480910C
:1006A0001401882389F083E08093E9008091F200AF
:1006B000882359F49091E80092FF07C095FD05C08A
:1006C0009BE69093E80001C080E02FBF08958091E1
:1006D0001401882371F08FB7F89493E09093E900A8
:1006E0009BE602C09093E8002091E80025FDFACF38
:1006F0008FBF0895909114019923D1F19FB7F89479
:1007000024E02093E90020911701222341F0209159
:10071000E80025FD02C09FBF2BC010921701209159
:10072000E400275E34E04091E80045FD12C09FBF21
:100730009091E400921721F481E08093170118C092
:10074000909114019923B1F09FB7F8943093E90088
:10075000EACF8093F1008091E80085FD03C08AE331
:100760008093E80085E0809316019FBF80E00895A4
:100770008FEF08958FEF0895909114019923D9F088
:100780009FB7F89424E02093E9002091E80025FD2C
:1007900003C09FBF8FEF08958093F1008091E80020
:1007A00085FD03C08AE38093E80085E0809316010D
:1007B0009FBF80E008958FEF08951F93DC01809123
:1007C0001401882309F41AC12FB7F89484E08093A8
:1007D000E90080911701882309F406C18091E8009F
:1007E00085FD02C02FBF0AC110921701FDC0809184
:1007F000E400875E9091E80095FD13C02FBF9091B3
:10080000E400981721F481E080931701F7C09091DC
:100810001401992309F4F2C02FB7F8941093E9005A
:10082000E9CF8091F200E52FE81B8E2F90E068174A
:10083000790708F4E62F6E1B7109F0E0E134F10549
:1008400008F0C5C0E45BFF4FEE0FFF1F0590F49169
:10085000E02D09948D918093F1008D918093F100AA
:100860008D918093F1008D918093F1008D91809313
:10087000F1008D918093F1008D918093F1008D9125
:100880008093F1008D918093F1008D918093F10020
:100890008D918093F1008D918093F1008D918093E3
:1008A000F1008D918093F1008D918093F1008D91F5
:1008B0008093F1008D918093F1008D918093F100F0
:1008C0008D918093F1008D918093F1008D918093B3
:1008D000F1008D918093F1008D918093F1008D91C5
:1008E0008093F1008D918093F1008D918093F100C0
:1008F0008D918093F1008D918093F1008D91809383
:10090000F1008D918093F1008D918093F1008D9194
:100910008093F1008D918093F1008D918093F1008F
:100920008D918093F1008D918093F1008D91809352
:10093000F1008D918093F1008D918093F1008D9164
:100940008093F1008D918093F1008D918093F1005F
:100950008D918093F1008D918093F1008D91809322
:10096000F1008D918093F1008D918093F1008D9134
:100970008093F1008D918093F1008D918093F1002F
:100980008D918093F1008D918093F1008D918093F2
:10099000F1008D918093F1008D918093F1008D9104
:1009A0008093F1008D918093F1008D918093F100FF
:1009B0008D918093F1008D918093F1008D918093C2
:1009C000F1008D918093F1008D918093F1008D91D4
:1009D0008093F1008091E80085FD02C04093E8001B
:1009E000309316012FBF04C014E050E44AE335E011
:1009F0006115710509F0FBCE80E001C08FEF1F91FA
:100A000008958FB7F89490911601992341F094E0DE
:100A10009093E9009AE39093E800109216018FBF3B
:100A2000089560910C0170910D0180910E019091DB
:100A30000F0108958091100108958091110108958A
:100A40008091120108958091150108959FB7F8943F
:100A500020911401222339F022E02093E900209113
:100A6000E80025FD03C09FBF8FEF089521EA209382
:100A7000F10020E22093F1001092F1001092F100B9
:100A80001092F1001092F10021E02093F1001092F9
:100A9000F1008093F1008AE38093E8009FBF80E03B
:100AA00008951F920F920FB60F9211248F939F9368
:100AB0008091E1001092E10083FF11C01092E900E3
:100AC00091E09093EB001092EC0092E19093ED0096
:100AD00098E09093F000109214011092150182FF9B
:100AE00013C080911401882379F080911601882326
:100AF00059F0815080931601882331F484E080936B
:100B0000E9008AE38093E8009F918F910F900FBED8
:100B10000F901F9018951F920F920FB60F920BB661
:100B20000F921124EF92FF920F931F932F933F93F5
:100B30004F935F936F937F938F939F93AF93BF93E5
:100B4000EF93FF93DF93CF930F92CDB7DEB7109261
:100B5000E9008091E80083FF2EC12091F1003091DF
:100B6000F1008091F100E82EFF244091F100942FD4
:100B700080E0E82AF92A0091F10010E04091F100AC
:100B8000942F80E0082B192B6091F100A091F100C7
:100B900082EF8093E800363009F059C081E291E09D
:100BA0009C0125503040FC013797459154914E15DA
:100BB0005F05F9F4F9014591549140175107C9F4C3
:100BC0002E5F3F4FF901859194912E5F3F4FF901C0
:100BD0002491462F50E07A2F60E0462B572B4F3F51
:100BE000510519F010F04FEF50E0421750F4242F48
:100BF00008C00796295F3F4FF1E08B349F0799F6B5
:100C0000DAC0AEEF4091E80050E0BA016570707054
:100C100061157105B9F342FDD1C0322F213108F0C1
:100C200030E1AC01632F07C0FA014F5F5F4FE491E1
:100C3000E093F10061506623B9F7830F911D231BE8
:100C4000A093E8002223F1F63031E1F2B7C035304D
:100C500051F48EEF8093E8000E94C6028E2D8068CA
:100C60008093E300ABC0393051F5222309F0A3C0D3
:100C7000E092140110921501109216018EEF8093EC
:100C8000E80041E084E491E04093E900FC01019632
:100C9000E491E093EB00EE2369F09C012F5F3F4F5E
:100CA000FC0184918093EC00C9010196F901249123
:100CB0002093ED004F5F453039F78EE177C0383033
:100CC00051F4203809F077C00E94C60280911401C7
:100CD0008093F10048C0313279F4213A09F06BC0B9
:100CE0000E94C602ECE0F1E081918093F10021E0E6
:100CF000E331F207C9F737C03032A1F4213209F0ED
:100D00005AC08091E80082FFFCCFECE0F1E08091D6
:100D1000F100819331E0E331F307C9F78BEF809362
:100D2000E80021C0323241F4213209F044C0E0929F
:100D300015010E94C60217C03323C9F429830E94FB
:100D4000C6022981223851F40093E9009091EB000A
:100D500081E095FF80E01092E90001C080E080937F
:100D6000F1001092F1008EEF8093E80027C031303F
:100D700011F0333001F52230F1F4E114F104D9F42B
:100D80000F77802F81508430B0F48EEF8093E8008D
:100D90000093E900333079F089E18093EB0081E042
:100DA00090E002C0880F991F0A95E2F78093EA004D
:100DB0001092EA0003C081E28093EB000F90CF9184
:100DC000DF91FF91EF91BF91AF919F918F917F91B3
:100DD0006F915F914F913F912F911F910F91FF90D4
:100DE000EF900F900BBE0F900FBE0F901F901895B5
:100DF00097FB092E05260ED057FD04D014D00AD03B
:100E0000001C38F450954095309521953F4F4F4F39
:100E10005F4F0895F6F790958095709561957F4F97
:100E20008F4F9F4F0895A1E21A2EAA1BBB1BFD01F5
:100E30000DC0AA1FBB1FEE1FFF1FA217B307E407B9
:100E4000F50720F0A21BB30BE40BF50B661F771F11
:100E5000881F991F1A9469F76095709580959095F1
:100E60009B01AC01BD01CF010895FC0188279927A2
:100E7000E89421912032E9F3293010F02E30C8F3A4
:100E80002B3241F02D3239F4689404C00E9453078C
:100E9000820F911D219120532A30C0F31EF49095AA
:100EA00081959F4F08957AE0979F902D879F802D81
:0A0EB000910D11240895F894FFCF6E
:100EBA00010001004464A0D5F1E2737700E100006B
:040ECA00000008001C
:00000001FF
